S0110000736363625F746573742E7372656359
S21401009497410000938141B91701FF03130141F60B
S2140100A4138501D5138641073306A6409305000040
S2140100B4EF00506D17150000130545E7EF00405893
S2140100C4EF00D05C13050000930541001306000001
S2140100D4EF00800D6F000058938781D3138781D377
S2140100E4630AF7009307000063860700138581D32C
S2140100F46780070067800000938781D3938581D347
S214010104B385F54093D7254093D5F501B385F5001E
S21401011493D51540638A050093070000638607009C
S214010124138581D36780070067800000130101FFF0
S2140101342324810083C781D62326110063940702F2
S214010144EFF09FF993070000638A07003735010033
S2140101541305C54197000000E7000000930710004F
S2140101642384F1D68320C1000324810013010101F5
S2140101746780000093070000638607023735010095
S214010184130101FF9385C1D61305C541232611002A
S21401019497000000E70000008320C100130101015D
S2140101A46FF09FF56FF05FF5130101FF2326110031
S2140101B4232481002322910023202101EF00000B38
S2140101C41305A000EF00403F930405001305B0009B
S2140101D4EF00803E130905001305C001EF00C03D82
S2140101E4130405001305D001EF00003D9397840026
S2140101F4B3E727019397070193D70701370702004F
S2140102042322F700131484003364A4009317040113
S21401021493D70701370702002324F7006F00000075
S21401022463040504130101FF9306F5FF1307300663
S2140102341306F0FF232601008327C100636EF7002F
S214010244130000008327C100938717002326F100BB
S2140102548327C100E376F7FE9386F6FFE39CC6FC8C
S21401026413010101678000006780000003A7C1D362
S2140102748327470093E737002322F70067800000AF
S214010284130101FF2326110003A7C1D38327070007
S21401029493E717002320F70013052003EFF05FF818
S2140102A48320C1001301010167800000130101FFCF
S2140102B42326110003A7C1D38327070093F7E7FF7B
S2140102C42320F70013052003EFF09FF58320C100D8
S2140102D41301010167800000130101FF23261100A9
S2140102E403A7C1D38327070093E727002320F7003A
S2140102F413052003EFF0DFF28320C100130101018F
S21401030467800000130101FF2326110003A7C1D350
S2140103148327070093F7D7FF2320F700130520034D
S214010324EFF01FF08320C100130101016780000074
S214010334130101FF23261100630A0500EFF05FF4A1
S2140103448320C1001301010167800000EFF01FF64E
S2140103546FF01FFF130101FF23261100630A050036
S214010364EFF09FF78320C1001301010167800000AD
S214010374EFF05FF96FF01FFF130101FF2326110051
S214010384EFF01FF0EFF05FF5EFF05FF2EFF09FF79D
S2140103948320C1001301010167800000130101FFDE
S2140103A423261100EFF09FF0EFF01FF3EFF05FED5F
S2140103B48320C1001301010167800000130101FFBE
S2140103C423261100EFF0DFEBEFF01FF1EFF09FF3C0
S2140103D4EFF0DFED8320C100130101016780000007
S2140103E4130101FF232611002324810023229100F7
S2140103F403A7C1D38327470093F7E7FF2322F70018
S214010404EFF09FED83A7C1D383A40700EFF09FEF1E
S21401041403A7C1D38327470093E717002322F700D6
S21401042413F514008320C1000324810083244100B2
S2140104341301010167800000130101FF2326110047
S2140104442324810023229100232021019304050003
S214010454130400001309800033D584401375150076
S214010464EFF01FEDEFF05FE7EFF0DFE913041400A0
S214010474E31424FFEFF0DFF68320C1000324810098
S2140104848324410003290100130101016780000050
S214010494130101FE232E1100232C8100232A91002F
S2140104A423282101232631012324410103A7C1D393
S2140104B48327470093F7E7FF2322F700130400007E
S2140104C493040000130A1000130980006F00000152
S2140104D4EFF05FE31304140063042403EFF0DFDF9B
S2140104E483A7C1D383A7070093F71700E38207FE08
S2140104F433158A0033E5A4009374F50F6FF05FFD9E
S21401050403A7C1D38327470093E717002322F700E5
S214010514138504008320C10103248101832441013E
S214010524032901018329C100032A81001301010261
S21401053467800000130101FF232611002324810094
S214010544232291009304050013840500EFF0DFE2F3
S21401055413052004EFF05FEE631E05021305040085
S214010564EFF09FED631E050213850400EFF0DFEC48
S21401057413040500631C0502EFF05FE21305040093
S2140105848320C10003248100832441001301010157
S21401059467800000EFF09FE01304F00F6FF01FFE7A
S2140105A4EFF0DFDF1304F00F6FF05FFDEFF01FDFF6
S2140105B41304F00F6FF09FFC130101FF23261100B3
S2140105C42324810013040500EFF01FDB1305200428
S2140105D4EFF09FE66314050413050400EFF0DFE56E
S2140105E463140504EFF09FDBEFF01FD91305300405
S2140105F4EFF09FE463100504EFF09FE91304050090
S214010604EFF0DFDBEFF09FD9130504008320C10070
S214010614032481001301010167800000EFF01FD855
S2140106241304F00F6FF05FFEEFF05FD71304F00FC3
S2140106346FF09FFDEFF09FD61304F00F6FF0DFFC11
S2140106449305050093060000130600001305000039
S2140106546F001021130101FF93050000232481007C
S2140106642326110013040500EF00102983A701D5E2
S21401067463840700E780070013050400EF10D044E5
S214010684130500006780000037360100B725010016
S2140106943735010013068642938545E213058543E3
S2140106A46F004035130101FF832545002324810093
S2140106B42322910023261100138441D893040500B4
S2140106C463848500EF10C07583A5840093078406B0
S2140106D46386F50013850400EF10807483A5C400B7
S2140106E41304040D638E8500032481008320C10056
S2140106F41385040083244100130101016F10407225
S2140107048320C100032481008324410013010101D5
S214010714678000001305000067800000130101FED6
S214010724232C8100B7070100138441D89387C76837
S214010734232E1100232A9100232821012326310187
S2140107442324410123A8F1D4130680009307400013
S214010754930500001305C4052326F4002320040092
S214010764232204002324040023220406232804004D
S214010774232A0400232C0400EF00D000B70701004D
S214010784371A0100B719010037190100B71401001F
S214010794130ACAAA938909B1130989B9938404C1AE
S2140107A49387970013068000930500001305440CF5
S2140107B423204403232234032324240323269402DC
S2140107C4232AF406232E840023240406232604065F
S2140107D4232804062326040C232C0406232E0406AD
S2140107E423200408EF00007AB707020013078406E3
S2140107F4938727011305C41213068000930500008E
S214010804232444092326340923282409232A940863
S214010814232EF40C2322E4082328040C232A040C94
S214010824232C040C232A04122320040E2322040E50
S2140108342324040EEF0000759307040D2328440FA8
S214010844232A340F232C240F232E940E8320C10134
S2140108542326F40E03248101832441010329010183
S2140108648329C100032A8100130101026780000065
S21401087483A701D5130101FE23263101232E11007E
S214010884232C8100232A91002328210193090500A2
S2140108946388070E37390100130989429304F0FF70
S2140108A483274900032489009387F7FF63D8070049
S2140108B46F00000813048406638C97060317C400AC
S2140108C49387F7FFE31807FEB707FFFF9387170021
S2140108D42326F400232204062320040023240400F0
S2140108E42322040023280400232A0400232C0400C2
S2140108F413068000930500001305C405EF00806805
S21401090423280402232A040223220404232404049D
S2140109148320C101130504000324810183244101BA
S214010924032901018329C100130101026780000024
S2140109340324090063060400130904006FF05FF63C
S2140109449305C01A13850900EF001052130405001D
S214010954630C05021305C500930740002320040019
S2140109642322F4002324A4001306001A930500008E
S214010974EF00406123208900130904006FF05FF241
S214010984EFF0DFD96FF01FF1232009009307C000B1
S21401099423A0F9006FF0DFF783274503638407007C
S2140109A46780000003A701D5B70701009387876A0C
S2140109B4232AF502E31607FE6FF05FD66780000070
S2140109C46780000037360100B7050100130686422A
S2140109D493854568130500006F00C0013736010092
S2140109E4B705010013068642938585711305000039
S2140109F46F004000130101FD23202103232E310142
S214010A04232C4101232A5101232861012326710144
S214010A14232611022324810223229102130B0500AB
S214010A24938B0500930A0600130A0000930910002D
S214010A341309F0FF83A44A0003A48A009384F4FFF5
S214010A4463C804028357C40063FEF9008317E400F5
S214010A549305040013050B0063862701E7800B004A
S214010A64336AAA009384F4FF13048406E39C24FDEA
S214010A7483AA0A00E3900AFC8320C10203248102AC
S214010A8483244102032901028329C101832A4101E6
S214010A94032B0101832BC10013050A00032A8101DC
S214010AA41301010367800000130101FF2324810061
S214010AB4138405008395E50023261100EF0000301A
S214010AC463400502832704058320C100B387A7007A
S214010AD42328F40403248100130101016780000024
S214010AE48357C40037F7FFFF1307F7FFB3F7E70091
S214010AF48320C1002316F40003248100130101019D
S214010B046780000013050000678000008397C50016
S214010B14130101FE232C8100232A9100232821019D
S214010B2423263101232E110013F707101384050021
S214010B34930405001309060093890600631007044D
S214010B4437F7FFFF1307F7FFB3F7E7008315E40052
S214010B542316F400032481018320C101938609002E
S214010B64130609008329C100032901011385040022
S214010B7483244101130101026F00C02A8395E50015
S214010B849306200013060000EF00C01C8317C40060
S214010B946FF01FFB130101FF23248100138405005A
S214010BA48395E50023261100EF00C01A9307F0FF92
S214010BB46308F5028357C400371700008320C10079
S214010BC4B3E7E7009397070193D707412328A404C3
S214010BD42316F40003248100130101016780000039
S214010BE48357C40037F7FFFF1307F7FFB3F7E70090
S214010BF49397070193D707418320C1002316F40076
S214010C040324810013010101678000008395E50038
S214010C146F004000130101FF232481002322910069
S214010C2413040500138505002326110023AA01D405
S214010C34EF1000699307F0FF630CF5008320C100F1
S214010C44032481008324410013010101678000000D
S214010C5483A741D5E38407FE8320C1002320F40043
S214010C6403248100832441001301010167800000ED
S214010C7483A701D4638EA70C83254504130101FEC3
S214010C84232A9100232E1100232C810093040500AE
S214010C946388050423282101232631011309000052
S214010CA493090008B387250103A40700630E040013
S214010CB4930504000324040013850400EF00806AEE
S214010CC4E31804FE83A5440413094900E31C39FD13
S214010CD413850400EF000069032901018329C1007B
S214010CE483A584036386050013850400EF008067EB
S214010CF403A40404630C0400930504000324040001
S214010D0413850400EF000066E31804FE83A5C404FB
S214010D146386050013850400EF00C06483A74403BB
S214010D24638E0700032481018320C1011385040017
S214010D348324410113010102678007008320C10156
S214010D440324810183244101130101026780000009
S214010D5467800000130101FF138705002324810027
S214010D64232291009305060013040500138606004A
S214010D74130507002326110023AA01D4EF104055BA
S214010D849307F0FF630CF5008320C1000324810060
S214010D9483244100130101016780000083A741D524
S214010DA4E38407FE8320C1002320F400032481008A
S214010DB4832441001301010167800000130101FF30
S214010DC4138705002324810023229100930506003E
S214010DD413040500138606001305070023261100D5
S214010DE423AA01D4EF1000519307F0FF630CF5001A
S214010DF48320C100032481008324410013010101DF
S214010E046780000083A741D5E38407FE8320C100E1
S214010E142320F400032481008324410013010101EB
S214010E2467800000130101FF138705002324810056
S214010E342322910093050600130405001386060079
S214010E44130507002326110023AA01D4EF10005628
S214010E549307F0FF630CF5008320C100032481008F
S214010E6483244100130101016780000083A741D553
S214010E74E38407FE8320C1002320F40003248100B9
S214010E84832441001301010167800000130101FF5F
S214010E9423248100B73701003734010023202101C0
S214010EA49387074213070442232611002322910045
S214010EB43389E7406382E702135929401304044245
S214010EC4930400008327040093841400130444004D
S214010ED4E7800700E3E824FF37340100B737010051
S214010EE493874742130704423389E740135929403D
S214010EF46380E7021304044293040000832704007A
S214010F049384140013044400E7800700E3E824FFF5
S214010F148320C100032481008324410003290100A6
S214010F241301010167800000130101FF23248100DE
S214010F34B7370100373401009387474213048442CC
S214010F443304F440232291002326110093542440B1
S214010F54638004021304C4FF3304F40083270400EB
S214010F649384F4FF1304C4FFE7800700E39804FEA8
S214010F748320C1000324810083244100130101015D
S214010F84678000001303F00013070500637EC302A5
S214010F949377F7006390070A63920508937606FF32
S214010FA41376F600B386E6002320B7002322B700A3
S214010FB42324B7002326B70013070701E366D7FEE9
S214010FC46314060067800000B306C34093962600A8
S214010FD497020000B38656006780C6002307B70051
S214010FE4A306B7002306B700A305B7002305B70079
S214010FF4A304B7002304B700A303B7002303B70071
S214011004A302B7002302B700A301B7002301B70068
S214011014A300B7002300B7006780000093F5F50F1F
S21401102493968500B3E5D50093960501B3E5D500FF
S2140110346FF0DFF69396270097020000B3865600FA
S21401104493820000E78006FA93800200938707FFE5
S2140110543307F7403306F600E378C3F66FF0DFF3A1
S21401106483A781D5638C070403A747001308F001FF
S2140110746340E80813182700630605023383070153
S2140110842324C30883A88718130610003316E60022
S214011094B3E8C80023A417192324D3109306200009
S2140110A46306D5021307170023A2E700B3870701D7
S2140110B423A4B70013050000678000001388C1EB62
S2140110C423AC01D59387C1EB6FF01FFA83A6C7182B
S2140110D41307170023A2E700B3E6C60023A6D71812
S2140110E4B387070123A4B700130500006780000037
S2140110F41305F0FF67800000130101FD232C410155
S2140111042320210303A981D5232611026308090A92
S214011114232E3101232A510123286101232671013B
S214011124232481022322910223248101130B050027
S214011134938B05009309F0FF930A1000832449005A
S2140111441384F4FF634E040493942400B3049900B7
S21401115463900B088327490083A644009387F7FF0F
S214011164638C870A23A204006386060283278918F0
S21401117433978A00032C4900B377F7006396070672
S214011184E78006000327490083A781D563108709F2
S214011194639E27071304F4FF9384C4FFE31A34FB06
S2140111A403248102832441028329C101832A410144
S2140111B4032B0101832BC100032C81008320C10270
S2140111C403290102032A8101130101036780000038
S2140111D483A74410E38077F91304F4FF9384C4FFD0
S2140111E4E31834FF6FF0DFFB8327C91883A544088F
S2140111F43377F7006316070213050B00E780060032
S2140112040327490083A781D5E30487F9E38A07F80E
S214011214138907006FF09FF2232289006FF0DFF431
S21401122413850500E78006006FF0DFF5130101FE64
S21401123423263101B7390100232C8100232A91008A
S2140112442328210123244101232E1100138A05009A
S2140112541309050093898955EF00103C03A78900FB
S214011264B71700009387F7FE83244700371700005B
S21401127493F4C4FF3384F400330444411354C40088
S2140112841304F4FF1314C400634EE4009305000032
S21401129413050900EF00107D83A78900B387970023
S2140112A46308F50213050900EF0050378320C101D6
S2140112B40324810183244101032901018329C100F7
S2140112C4032A810013050000130101026780000050
S2140112D4B305804013050900EF00D0789307F0FFAB
S2140112E46308F5049387C10403A7070083A689004E
S2140112F4B384844093E4140033078740130509003C
S21401130423A2960023A0E700EF0050318320C101F9
S2140113140324810183244101032901018329C10096
S214011324032A8100130510001301010267800000DF
S2140113349305000013050900EF00D07203A7890086
S2140113449306F000B307E540E3DEF6F483A641D442
S21401135493E717002322F7003305D54023A6A104FB
S2140113646FF05FF463820518130101FF23248100E3
S21401137423229100138405009304050023261100FB
S214011384EF0090290325C4FF130784FFB735010036
S2140113949377E5FF3306F700938585558326460044
S2140113A403A8850093F6C6FF6302C81A2322D60053
S2140113B4137515003308D6006310050A032384FF4A
S2140113C40328480037350100330767408328870020
S2140113D413050556B3876700137818006382A814AB
S2140113E40323C70023A66800232413016306081AEF
S2140113F493E617002322D7002320F6009306F01F56
S21401140463ECF60693F687FF9386860003A54500EC
S214011414B386D50003A6060013D857009307100019
S214011424B3970701B3E7A700138586FF2326A70012
S2140114342324C70023A2F50023A0E6002326E60002
S214011444032481008320C100138504008324410002
S214011454130101016F00901C032548001375150044
S2140114646306050893E61700232ED4FE2320F60010
S2140114749306F01FE3F8F6F893D697001306400098
S2140114846360D61293D66700138596031386860384
S214011494131535003385A50083260500130585FF3E
S2140114A46318D5006F00401583A686006308D5002F
S2140114B403A646001376C6FFE3E8C7FE03A5C600E7
S2140114C42326A7002324D700032481002324E50030
S2140114D48320C100138504008324410023A6E6006B
S2140114E4130101016F009013678000003735010076
S2140114F4B387D7001305055683268600638CA60C8E
S2140115040328C60013E517003306F70023A60601D1
S2140115142324D8002322A7002320F6006FF01FEE11
S214011524631C0812832586000326C600B386F600CC
S21401153493E7160023A6C5002324B6002322F7004A
S2140115443307D7002320D7006FF09FEF13751500DC
S214011554B386D70063100502032584FF3307A7402B
S2140115648327C70003268700B386A6002326F60032
S21401157423A4C70013E6160083A781D42322C70039
S21401158423A4E500E3EEF6EA83A541D61385040019
S214011594EFF0DFC96FF0DFEAB387D7006FF0DFF54E
S2140115A4130640016370D602130640056364D6062B
S2140115B493D6C7001385F6061386E606131535007B
S2140115C46FF05FED1385C6051386B6051315350052
S2140115D46FF05FEC23AAE50023A8E50093E6170065
S2140115E42326A7002324A7002322D7003307F700C6
S2140115F42320F7006FF0DFE403A8450013562640C6
S21401160493071000B397C700B3E7070123A2F500B9
S2140116146FF01FEB13064015636CD60093D6F700E4
S2140116241385860713867607131535006FF09FE634
S21401163413064055636CD60093D627011385D60747
S2140116441386C607131535006FF0DFE41305803FD4
S2140116541306E0076FF01FE493E617002322D70072
S2140116642320F6006FF0DFDD130101FD232E310187
S21401167423261102232481022322910223202103FB
S2140116849387B50013076001930905006360F708A3
S2140116949307000163E0B720EF0000789307800109
S2140116A4930520009304000113890193B307F900FD
S2140116B403A44700138787FF6300E43483274400A9
S2140116C48326C4000326840093F7C7FFB307F400F8
S2140116D403A747002326D60023A4C60013671700D2
S2140116E41385090023A2E700EF0040731305840065
S2140116F48320C102032481028324410203290102B7
S2140117048329C101130101036780000093F487FF55
S21401171463C2071863E0B418EF0000709307701FE4
S21401172463F6973E93D79400638E0716130740001B
S214011734636CF73293D76400938597031388870302
S21401174413963500138901933306C9000324460012
S214011754130686FF630886021305F0006F00400136
S2140117648326C40063560728630ED6001384060036
S2140117748327440093F7C7FF33879740E352E5FE78
S214011784930508000324090193088900630E1425B0
S214011794832744009306F00093F7C7FF33879740E7
S2140117A463CCE636232A190123281901635007342A
S2140117B41307F01F032549006368F72413F787FF0F
S2140117C4130787003307E9008326070013D657005B
S2140117D493071000B397C7003365F500930787FF97
S2140117E42326F4002324D4002322A90023208700DF
S2140117F423A6860093D72540130610003316F60059
S214011804636AC50AB377A600639407021316160023
S21401181493F5C5FFB377A60093854500639A070041
S21401182413161600B377A60093854500E38A07FED0
S2140118341308F000139335003303690013050300FE
S2140118448327C500138E05006302F52403A747000A
S2140118541384070083A7C7001377C7FFB30697400F
S2140118646342D824E3C206FE3307E4008326470016
S214011874032684001385090093E616002322D70065
S2140118842326F60023A4C700EF004059130584005D
S2140118946FF01FE69307C00023A0F90013050000AC
S2140118A46FF01FE513060020930500041308F003E8
S2140118B46FF05FE90324890023286101832744002C
S2140118C413FBC7FF63689B0033079B409307F00035
S2140118D463CAE70C23229101232A510103A741D4A9
S2140118E483AA41D6232C4101232671019307F0FFD5
S2140118F4330A6401B38A54016306F73CB717000040
S2140119049387F700B38AFA00B7F7FFFFB3FAFA0032
S21401191493850A0013850900EF00D0149307F0FF9E
S214011924930B0500630AF54423248101636E452362
S214011934138CC10483250C00B385BA002320BC0094
S214011944138705006316AA2A931745016392072A8B
S214011954832B8900B3075B0193E7170023A2FB00DF
S21401196483A601D663F4B60023A0B1D683A6C1D557
S21401197463F4B60023AEB1D4032C810013840B00A8
S21401198493F7C7FF3387974063EA97389307F000C6
S21401199463D6E738032A8101832A4101832BC100D8
S2140119A4832C410093E714002322F400B30494002B
S2140119B423249900136717001385090023A2E40062
S2140119C4EF00C0458320C10213058400032481026D
S2140119D4032B010183244102032901028329C10146
S2140119E41301010367800000032549006FF09FE09F
S2140119F4032684006FF09FCD03A4C70093852500BA
S214011A04E38287D86FF09FCB13D7970093064000E5
S214011A1463F2E6149306400163E4E6321306C7054F
S214011A249306B705131636003306C90003270600C6
S214011A34130686FF6318E6006F0040290327870014
S214011A446308E6008326470093F6C6FFE3E8D7FE5D
S214011A540326C7002326C4002324E4002324860087
S214011A64232687006FF01FD9130740016378F71008
S214011A74130740056364F72E93D7C4009385F706CE
S214011A841388E706139635006FF0DFCB130E1E009E
S214011A9493773E0013058500638007108327C500EE
S214011AA46FF09FDA0326840093E514002322B40022
S214011AB42326F60023A4C700B3049400232A99001E
S214011AC42328990093E7160023A6140123A41401DE
S214011AD423A2F4003307E400138509002320D7006A
S214011AE4EF00C033130584006FF09FC0B307F40002
S214011AF403A74700138509001367170023A2E7000D
S214011B04EF00C031130584006FF09FBE93D53400F7
S214011B14938784006FF05FB993E614002322D40000
S214011B24B3049400232A9900232899009366170086
S214011B3423A6140123A4140123A2D400B307F4009A
S214011B441385090023A0E700EF00402D1305840048
S214011B546FF01FBA13D7670013069703930687031C
S214011B64131636006FF05FEC630C24070324890018
S214011B74032C8100832744006FF09FE09385C705FB
S214011B841388B705139635006FF0DFBB83278300F0
S214011B949385F5FF639E672693F73500130383FF4A
S214011BA4E39607FE032749009347F6FFB3F7E700DA
S214011BB42322F90013161600E3EEC7CEE30C06CE75
S214011BC43377F600631A0700131616003377F60008
S214011BD4130E4E00E30A07FE93050E006FF09FC531
S214011BE4138CC10403270C003387EA002320EC007E
S214011BF483A641D49307F0FF6386F618B3874B4157
S214011C04B387E7002320FC0093FC7B00638C0C0C59
S214011C14B38B9B41B717000093878700938B8B0088
S214011C24B3859741B38A5B01B385554193954501C5
S214011C3413DA450193050A0013850900EF00806253
S214011C449307F0FF6300F51833057541B30A4501A0
S214011C5403270C002324790193E71A00B305EA004D
S214011C642320BC0023A2FB00E30C24CF9306F00040
S214011C7463F0660B0327440093074BFF93F787FF34
S214011C84137717003367F7002322E4001306500086
S214011C943307F4002322C7002324C70063E6F600B3
S214011CA483A74B006FF0DFCB9305840013850900EF
S214011CB4EFF04FEB832B890083250C0083A74B00A1
S214011CC46FF01FCA938A0A016FF09FC493D6264009
S214011CD493071000B397D7003365F5002322A900B4
S214011CE46FF05FD7B3855B01B305B04093954501AB
S214011CF413DA450193050A0013850900EF0080569F
S214011D049307F0FFE312F5F4130A00006FF05FF493
S214011D14032C81009307100023A2FB0013850900FE
S214011D24EF00C00F13050000032A8101832A410135
S214011D34032B0101832BC100832C41006FF05F9BB1
S214011D449306400563E4E60413D7C7001306F706B3
S214011D549306E706131636006FF01FCD13074015DA
S214011D646364F70493D7F40093858707138877078A
S214011D74139635006FF01F9D0324890083274400C2
S214011D846FF01FC023A271D56FF01FE893064015AC
S214011D9463E4E60413D7F700130687079306770769
S214011DA4131636006FF05FC8130740556364F704D3
S214011DB493D724019385D7071388C707139635004D
S214011DC46FF05F98938C8CFFB38A9A01B38A7A4139
S214011DD4130A00006FF0DFE79306405563E4E6025A
S214011DE413D727011306D7079306C707131636001A
S214011DF46FF09FC31306803F9305F0071308E007AF
S214011E046FF05F941306803F9306E0076FF0DFC11F
S214011E14832749006FF01FDA67800000678000009F
S214011E24130101FF232611002320210163880502E3
S214011E3423248100232291001384050093040500C2
S214011E446306050083274503638C070C8317C400C8
S214011E546392070203248100832441008320C10086
S214011E6413090000130509000329010013010101E8
S214011E74678000009305040013850400EF00800BBF
S214011E848327C40213090500638A07008325C40156
S214011E9413850400E7800700634405068357C400DE
S214011EA493F707086396070683250403638C0500E6
S214011EB4930704046386F50013850400EFF08FCAC4
S214011EC4232804028325440463880500138504003B
S214011ED4EFF04FC923220404EFE05FAE231604009B
S214011EE4EFE01FAE8320C100032481008324410058
S214011EF4130509000329010013010101678000008D
S214011F048357C4001309F0FF93F70708E38E07F815
S214011F148325040113850400EFF0CFC46FF0DFF8C6
S214011F24EFE09FA76FF09FF29305050003A501D488
S214011F346FF01FEF0397C500130101FE232C8100E8
S214011F4423263101232E110093778700138405007D
S214011F549309050063900712B7170000938707805B
S214011F6483A64500B367F7002396F5006352D0189D
S214011F74032884026304080E232A9100931637016A
S214011F8483A4090023A009008325C40163CE061691
S214011F94130600009306100013850900E7000800E5
S214011FA49307F0FF130605006304F51A8317C400AC
S214011FB4032884028325C40193F74700638E070030
S214011FC403274400832704033306E6406386070099
S214011FD48327C4033306F6409306000013850900DD
S214011FE4E70008009307F0FF6314F51283A60900BF
S214011FF49307D0010317C40063EAD716B707402036
S21401200493871700B3D7D70093F717006380071693
S21401201403260401B7F7FFFF9387F77FB377F7002B
S2140120242316F400232204002320C4009317370147
S21401203463D40700638206108325040323A0990052
S21401204463840510930704046386F5001385090069
S214012054EFF04FB183244101232804021305000045
S2140120648320C101032481018329C10013010102D4
S214012074678000002328210103A9050163020908DA
S214012084232A910083A405001377370023A0250192
S214012094B3842441930700006314070083A7450112
S2140120A42324F400634890006F0040053309A90017
S2140120B463569004832744028325C401938604004F
S2140120C41306090013850900E7800700B384A440BA
S2140120D4E34EA0FC0317C400032901011367070498
S2140120E4832441012316E4001305F0FF6FF05FF724
S2140120F483A6C503E34ED0E66FF05FF68324410161
S214012104032901016FF09FF5032604056FF0DFEA4A
S2140121140317C40083260401B7F7FFFF9387F77FED
S214012124B377F7002316F400232204002320D400F7
S21401213493173701E3D207F0832504032328A40465
S21401214423A09900E39005F0832441016FF01FF169
S21401215483A70900E38C07E41307D001638CE70027
S214012164130760016388E7000317C40013670704B5
S2140121746FF01FF723A09900832441016FF01FEE2F
S214012184130101FE232C8100232E110013040500E4
S2140121946306050083274503638A07028397C50000
S2140121A4639C07008320C1010324810113050000F9
S2140121B41301010267800000130504000324810152
S2140121C48320C101130101026FF0DFD62326B1007B
S2140121D4EFE08FFC8325C1006FF05FFC630005060A
S2140121E49305050003A501D463060500832745036B
S2140121F4638C07008397C5006396070013050000E8
S214012204678000006FF01FD3130101FE2326B1007F
S2140122142324A100232E1100EFE00FF88325C1002B
S214012224032581008397C500639807028320C101B3
S2140122341305000013010102678000003736010010
S214012244B7250100373501001306864293854518E4
S214012254130585436FE00FFA8320C10113010102C0
S2140122646FF05FCD130101FF232481002322910027
S21401227413040500138505002326110023AA01D49F
S214012284EF00800E9307F0FF630CF5008320C10076
S21401229403248100832441001301010167800000A7
S2140122A483A741D5E38407FE8320C1002320F400DD
S2140122B40324810083244100130101016780000087
S2140122C41305000067800000730010006FF0DFFF45
S2140122D4130101FF23261100EF0080138320C100A0
S2140122E4930780052320F5001305F0FF1301010170
S2140122F467800000B71720FF130101FE93870700CC
S2140123042326F1000327C100232E110063040704CA
S2140123148327070093960701E3DC06FE13D50741DE
S214012324130515006364A602635CA000B386A500CA
S2140123342380F5008327070093851500E39AB6FEEC
S2140123448320C10113010102678000001305060002
S2140123546FF09FFDEF00C00B930780052320F50067
S2140123641305F0FF6FF0DFFD83A7C1D4B386A70082
S214012374634A050063E8F60023A6D1D41385070053
S21401238467800000130101FF23261100EF004008B7
S2140123948320C1009307C0002320F5009307F0FFB4
S2140123A4138507001301010167800000B71720FF9A
S2140123B4130101FE938707002326F1000327C100BA
S2140123C4232E1100630C0702630206023388C5003C
S2140123D4B706010083274700E3EED7FE83C705004F
S2140123E4938515002320F700E39605FF13050600E1
S2140123F48320C1011301010267800000EF00400140
S214012404930780052320F5001305F0FF6FF05FFEA8
S20C01241403A501D46780000056
S20801341C00000000A6
S2080134207801010028
S208013424300101006C
S2140134280000000003000000AC39010000000000A5
S21401343800000000AC390100143A01007C3A010092
S214013448000000000000000000000000000000006E
S214013458000000000000000000000000000000005E
S214013468000000000000000000000000000000004E
S214013478000000000000000000000000000000003E
S214013488000000000000000000000000000000002E
S214013498000000000000000000000000000000001E
S2140134A8000000000000000000000000000000000E
S2140134B800000000000000000000000000000000FE
S2140134C800000000000000000100000000000000ED
S2140134D80E33CDAB34126DE6ECDE05000B000000B2
S2140134E800000000000000000000000000000000CE
S2140134F800000000000000000000000000000000BE
S21401350800000000000000000000000000000000AD
S214013518000000000000000000000000000000009D
S214013528000000000000000000000000000000008D
S214013538000000000000000000000000000000007D
S214013548000000000000000000000000000000006D
S2140135580000000000000000583501005835010041
S21401356860350100603501006835010068350100E5
S2140135787035010070350100783501007835010095
S2140135888035010080350100883501008835010045
S21401359890350100903501009835010098350100F5
S2140135A8A0350100A0350100A8350100A8350100A5
S2140135B8B0350100B0350100B8350100B835010055
S2140135C8C0350100C0350100C8350100C835010005
S2140135D8D0350100D0350100D8350100D8350100B5
S2140135E8E0350100E0350100E8350100E835010065
S2140135F8F0350100F0350100F8350100F835010015
S21401360800360100003601000836010008360100C0
S2140136181036010010360100183601001836010070
S2140136282036010020360100283601002836010020
S21401363830360100303601003836010038360100D0
S2140136484036010040360100483601004836010080
S2140136585036010050360100583601005836010030
S21401366860360100603601006836010068360100E0
S2140136787036010070360100783601007836010090
S2140136888036010080360100883601008836010040
S21401369890360100903601009836010098360100F0
S2140136A8A0360100A0360100A8360100A8360100A0
S2140136B8B0360100B0360100B8360100B836010050
S2140136C8C0360100C0360100C8360100C836010000
S2140136D8D0360100D0360100D8360100D8360100B0
S2140136E8E0360100E0360100E8360100E836010060
S2140136F8F0360100F0360100F8360100F836010010
S21401370800370100003701000837010008370100BB
S214013718103701001037010018370100183701006B
S214013728203701002037010028370100283701001B
S21401373830370100303701003837010038370100CB
S214013748403701004037010048370100483701007B
S214013758503701005037010058370100583701002B
S21401376860370100603701006837010068370100DB
S214013778703701007037010078370100783701008B
S214013788803701008037010088370100883701003B
S21401379890370100903701009837010098370100EB
S2140137A8A0370100A0370100A8370100A83701009B
S2140137B8B0370100B0370100B8370100B83701004B
S2140137C8C0370100C0370100C8370100C8370100FB
S2140137D8D0370100D0370100D8370100D8370100AB
S2140137E8E0370100E0370100E8370100E83701005B
S2140137F8F0370100F0370100F8370100F83701000B
S21401380800380100003801000838010008380100B6
S2140138181038010010380100183801001838010066
S2140138282038010020380100283801002838010016
S21401383830380100303801003838010038380100C6
S2140138484038010040380100483801004838010076
S2140138585038010050380100583801005838010026
S21401386860380100603801006838010068380100D6
S2140138787038010070380100783801007838010086
S2140138888038010080380100883801008838010036
S21401389890380100903801009838010098380100E6
S2140138A8A0380100A0380100A8380100A838010096
S2140138B8B0380100B0380100B8380100B838010046
S2140138C8C0380100C0380100C8380100C8380100F6
S2140138D8D0380100D0380100D8380100D8380100A6
S2140138E8E0380100E0380100E8380100E838010056
S2140138F8F0380100F0380100F8380100F838010006
S21401390800390100003901000839010008390100B1
S2140139181039010010390100183901001839010061
S2140139282039010020390100283901002839010011
S21401393830390100303901003839010038390100C1
S2140139484039010040390100483901004839010071
S20C01395850390100503901004D
S21401396000000000700020FF38340100FFFFFFFF59
S20C013970000002009C3C01006E
S80401009466
